{
    "contractName": "TokenBank",
    "abi": [
        {
            "inputs": [],
            "stateMutability": "nonpayable",
            "type": "constructor"
        },
        {
            "anonymous": false,
            "inputs": [
                {
                    "indexed": true,
                    "internalType": "address",
                    "name": "user",
                    "type": "address"
                },
                {
                    "indexed": false,
                    "internalType": "uint256",
                    "name": "amount",
                    "type": "uint256"
                }
            ],
            "name": "Deposited",
            "type": "event"
        },
        {
            "anonymous": false,
            "inputs": [
                {
                    "indexed": true,
                    "internalType": "address",
                    "name": "user",
                    "type": "address"
                },
                {
                    "indexed": false,
                    "internalType": "uint256",
                    "name": "amount",
                    "type": "uint256"
                }
            ],
            "name": "Withdrawn",
            "type": "event"
        },
        {
            "inputs": [
                {
                    "internalType": "address",
                    "name": "_constractAdress",
                    "type": "address"
                },
                {
                    "internalType": "uint256",
                    "name": "_amount",
                    "type": "uint256"
                }
            ],
            "name": "deposit",
            "outputs": [
                {
                    "internalType": "bool",
                    "name": "",
                    "type": "bool"
                }
            ],
            "stateMutability": "nonpayable",
            "type": "function"
        },
        {
            "inputs": [
                {
                    "internalType": "address",
                    "name": "to",
                    "type": "address"
                },
                {
                    "internalType": "uint256",
                    "name": "amount",
                    "type": "uint256"
                }
            ],
            "name": "tokensReceived",
            "outputs": [
                {
                    "internalType": "bool",
                    "name": "",
                    "type": "bool"
                }
            ],
            "stateMutability": "nonpayable",
            "type": "function"
        },
        {
            "inputs": [
                {
                    "internalType": "address",
                    "name": "_constractAdress",
                    "type": "address"
                },
                {
                    "internalType": "uint256",
                    "name": "_amount",
                    "type": "uint256"
                }
            ],
            "name": "withdraw",
            "outputs": [
                {
                    "internalType": "bool",
                    "name": "",
                    "type": "bool"
                }
            ],
            "stateMutability": "nonpayable",
            "type": "function"
        }
    ],
    "bytecode": "608060405234801561001057600080fd5b50600180546001600160a01b03191633179055610842806100326000396000f3fe608060405234801561001057600080fd5b50600436106100415760003560e01c806324a756d11461004657806347e7ef241461006d578063f3fef3a314610080575b600080fd5b610059610054366004610750565b610093565b604051901515815260200160405180910390f35b61005961007b366004610750565b610157565b61005961008e366004610750565b610547565b600033803b6100d95760405162461bcd60e51b815260206004820152600d60248201526c13db9b1e4810dbdb9d1c9858dd609a1b60448201526064015b60405180910390fd5b336000908152602081815260408083206001600160a01b03881684529091528120805485929061010a90849061079e565b90915550506040518381526001600160a01b038516907f2da466a7b24304f47e87fa2e1e5a81b9831ce54fec19055ce277ca2f39ba42c49060200160405180910390a25060019392505050565b604051336024820152600090819081906001600160a01b0386169060440160408051601f198184030181529181526020820180516001600160e01b0316638be0501b60e01b179052516101aa91906107b1565b6000604051808303816000865af19150503d80600081146101e7576040519150601f19603f3d011682016040523d82523d6000602084013e6101ec565b606091505b509150915060008180602001905181019061020791906107e0565b9050848110156102595760405162461bcd60e51b815260206004820152601c60248201527f4e6f7420656e6f7567682062616c616e636520696e2045524332302e0000000060448201526064016100d0565b826102985760405162461bcd60e51b815260206004820152600f60248201526e2932b8bab2b9ba103330b4b632b21760891b60448201526064016100d0565b60405133602482015230604482015260009081906001600160a01b0389169060640160408051601f198184030181529181526020820180516001600160e01b03166301154ea560e11b179052516102ef91906107b1565b6000604051808303816000865af19150503d806000811461032c576040519150601f19603f3d011682016040523d82523d6000602084013e610331565b606091505b509150915060008180602001905181019061034c91906107e0565b90508781101561039e5760405162461bcd60e51b815260206004820152601e60248201527f4e6f7420656e6f75676820616c6c6f77616e636520696e2045524332302e000060448201526064016100d0565b826103eb5760405162461bcd60e51b815260206004820152601960248201527f416c6c6f77616e63652052657175657374206661696c65642e0000000000000060448201526064016100d0565b604051336024820152306044820152606481018990526000906001600160a01b038b169060840160408051601f198184030181529181526020820180516001600160e01b0316630104ece160e21b1790525161044791906107b1565b6000604051808303816000865af19150503d8060008114610484576040519150601f19603f3d011682016040523d82523d6000602084013e610489565b606091505b50509050806104cd5760405162461bcd60e51b815260206004820152601060248201526f2a3930b739b332b9102330b4b632b21760811b60448201526064016100d0565b6001600160a01b038a16600090815260208181526040808320338452909152812080548b92906104fe90849061079e565b909155505060405189815233907f2da466a7b24304f47e87fa2e1e5a81b9831ce54fec19055ce277ca2f39ba42c49060200160405180910390a296505050505050505b92915050565b6001546000906001600160a01b031633146105915760405162461bcd60e51b815260206004820152600a60248201526927b7363c9020b236b4b760b11b60448201526064016100d0565b6001600160a01b0383166000908152602081815260408083203384529091529020548211156106025760405162461bcd60e51b815260206004820181905260248201527f4e6f7420656e6f7567682062616c616e63657320696e20546f6b656e42616e6b60448201526064016100d0565b6040516001600160a01b038416602482018190526044820184905260009160640160408051601f198184030181529181526020820180516001600160e01b0316630ebaf78760e21b1790525161065891906107b1565b6000604051808303816000865af19150503d8060008114610695576040519150601f19603f3d011682016040523d82523d6000602084013e61069a565b606091505b50509050806106de5760405162461bcd60e51b815260206004820152601060248201526f2bb4ba34323930bb902330b4b632b21760811b60448201526064016100d0565b6001600160a01b0384166000908152602081815260408083203384529091528120805485929061070f9084906107f9565b909155505060405183815233907f7084f5476618d8e60b11ef0d7d3f06914655adb8793e28ff7f018d4c76d505d59060200160405180910390a29392505050565b6000806040838503121561076357600080fd5b82356001600160a01b038116811461077a57600080fd5b946020939093013593505050565b634e487b7160e01b600052601160045260246000fd5b8082018082111561054157610541610788565b6000825160005b818110156107d257602081860181015185830152016107b8565b506000920191825250919050565b6000602082840312156107f257600080fd5b5051919050565b818103818111156105415761054161078856fea2646970667358221220612661e768261fd7b38c788f11ea3b058a348db801c1469f3d896a172670076c64736f6c63430008130033",
    "sourcePath": "/home/rayer/Documents/OpenspaceBootcamp/W2D4/test_TokenHook/src/ExtendedTokenBank.sol",
    "compiler": {
        "name": "solc",
        "version": "0.8.19+commit.7dd6d404"
    },
    "functionHashes": {
        "deposit(address,uint256)": "47e7ef24",
        "tokensReceived(address,uint256)": "24a756d1",
        "withdraw(address,uint256)": "f3fef3a3"
    },
    "gasEstimates": {
        "creation": {
            "codeDepositCost": "422800",
            "executionCost": "24696",
            "totalCost": "447496"
        },
        "external": {
            "deposit(address,uint256)": "infinite",
            "tokensReceived(address,uint256)": "28864",
            "withdraw(address,uint256)": "infinite"
        },
        "internal": {
            "isContract(address)": "infinite"
        }
    }
}